:100000000C941A010C9442010C9442010C9442018C
:100010000C9442010C9442010C9442010C94420154
:100020000C9442010C9442010C9442010C94420144
:100030000C9442010C9442010C9442010C94420134
:100040000C94AE040C9442010C94D4050C9422063A
:100050000C9442010C9442010C9442010C94420114
:100060000C9442010C944201D302060306030603DA
:100070000603E802F20206030603EF020603060384
:10008000060306030603060306030603EC02060343
:1000900010030603F5020603060306030603E20245
:1000A000DE02060306030603060306030603060331
:1000B00006030603E602E402F802FB020603060357
:1000C000060306030603E0020603DC020603DA0267
:1000D000FE0206030103005EBCE2613FDD83C29CB9
:1000E0007E20A3FD1F419DC3217FFCA2401E5F0116
:1000F000E3BD3E6082DC237D9FC1421CFEA0E1BFC8
:100100005D0380DE3C62BEE0025CDF81633D7C22F9
:10011000C09E1D43A1FF4618FAA427799BC584DA27
:100120003866E5BB5907DB856739BAE406581947D5
:10013000A5FB7826C49A653BD987045AB8E6A7F987
:100140001B45C6987A24F8A6441A99C7257B3A64B9
:1001500086D85B05E7B98CD2306EEDB3510F4E10E7
:10016000F2AC2F7193CD114FADF3702ECC92D38D95
:100170006F31B2EC0E50AFF1134DCE90722C6D3347
:10018000D18F0C52B0EE326C8ED0530DEFB1F0AE79
:100190004C1291CF2D73CA947628ABF517490856A7
:1001A000B4EA6937D58B5709EBB536688AD495CB55
:1001B0002977F4AA4816E9B7550B88D6346A2B7507
:1001C00097C94A14F6A8742AC896154BA9F7B6E839
:1001D0000A54D7896B3500000000240027002A004C
:1001E00000000000250028002B0000000000230074
:1001F0002600290004040404040404040202020288
:1002000002020303030303030102040810204080D9
:100210000102040810200102040810200000000759
:1002200000020100000304060000000000000000BE
:100230004401900711241FBECFEFD8E0DEBFCDBF31
:1002400011E0A0E0B1E0ECE3F2E102C005900D9214
:10025000AC32B107D9F712E0ACE2B1E001C01D92B7
:10026000A731B107E1F712E0C4E3D2E004C022975E
:10027000FE010E941809C033D107C9F70E94E607A2
:100280000C941C090C9400008CE291E06DE00E943B
:1002900053048AE391E06CE00E94530488E491E007
:1002A0006BE00E94530486E591E06AE00E945304EB
:1002B0000895CF93DF93EC016115710519F420E0E7
:1002C00030E00FC0DB010D900020E9F71197A61B6D
:1002D000B70BE881F9810280F381E02DAD0109952A
:1002E0009C01C901DF91CF91089585EF91E040E035
:1002F00052EC61E070E00E945D0685EF91E00E94A3
:100300008E078823D1F383E00E94890408950F9318
:100310001F93CF93DF938C01C1E0D0E00BC0CE01DF
:10032000880F991F23E0CC0FDD1F2A95E1F7C80F36
:10033000D91F6150623098F70BC085EF91E060E300
:100340000E944E07CE016AE070E00E94CD08EB01EA
:100350000C171D0790F30115110539F085EF91E099
:10036000B8014AE050E00E949A08DF91CF911F91B6
:100370000F910895AF92BF92CF92DF92EF92FF92CA
:100380000F931F93DF93CF93CDB7DEB72A970FB6A6
:10039000F894DEBF0FBECDBFFC018430910508F09C
:1003A0008DC0EE0FFF1FED5EFE4FE080F180C701B4
:1003B0000E940804882309F481C0C70163E340E078
:1003C0000E94A7036E010894C11CD11C860169E03C
:1003D000A62EB12CAC0EBD1EC7010E945603F8011B
:1003E00081938F01EA15FB05B9F7C7010E94080444
:1003F000C7018E010F5F1F4FB8010E94E703C701BD
:1004000064E441E00E94A70368EE73E080E090E0BE
:100410000E94F604C7010E940804C701B8010E94A7
:10042000E703C7016EEB40E00E94A7038E01065F61
:100430001F4FC7010E945603F60181936F01E01719
:10044000F107B9F71985CE01019668E00E94110302
:100450001817A1F59A8180E02981022F10E0082B5E
:10046000192B17FF08C085EF91E06DE20E944E073F
:10047000109501951F4FC80154E0969587955A95A0
:10048000E1F763E00E94870185EF91E06EE20E9450
:100490001F080F70107084E690E09C01029FC0015D
:1004A000039F900D129F900D112444E0969587951F
:1004B0004A95E1F762E00E94870106C085EF91E06E
:1004C00064E071E00E94AB0885EF91E068EF0E9464
:1004D0004E0785EF91E060E071E00E94AB082A963C
:1004E0000FB6F894DEBF0FBECDBFCF91DF911F9145
:1004F0000F91FF90EF90DF90CF90BF90AF90089555
:100500000F931F93863018F020E030E003C00E9464
:100510008C049C018901F4E015950795FA95E1F7A3
:10052000C901E6E095958795EA95E1F7080F191F4F
:10053000020F131FC80168EE73E00E94E108CB01AF
:1005400061E00E94870185EF91E06EE20E944E0714
:10055000C80168EE73E00E94E10863E00E94870131
:1005600085EF91E06AE071E00E94AB081F910F9166
:10057000089585EF91E00E94E406181619060CF024
:100580004FC085EF91E00E941507BC01FC01B797B1
:10059000E733F105D8F5EC5CFF4FEE0FFF1F059038
:1005A000F491E02D099485EF91E06EE071E00E94F6
:1005B0005901089580E00DC081E00BC082E009C0C0
:1005C00083E007C084E005C085E003C086E001C089
:1005D00087E00E948002089580E090E014C081E0EE
:1005E00090E011C082E090E00EC083E090E00BC08C
:1005F00084E090E008C085E090E005C086E090E0EF
:1006000002C087E090E00E94BA01089585EF91E072
:100610000E944E0785EF91E060E171E00E94590170
:100620000895DC0180E00BC0E82FF0E08D9190E0B0
:10063000E827F927EA52FF4FE49161508E2F662395
:1006400099F70895DF92EF92FF920F931F93FC01A9
:10065000E08001811281F894F80181818E298183E3
:100660008281DE2CD0948D21828383E090E00E94F1
:100670004F05F80181818D2181838AE090E00E94FD
:100680004F05F8010081789485E390E00E944F05C2
:1006900080E010E0FF240E211F21012B09F081E0F2
:1006A0001F910F91FF90EF90DF900895EF92FF92CE
:1006B0000F931F93CF93DF937C0101E010E0C0E024
:1006C000D0E0C7010E9422038111102B000F219658
:1006D000C830D105B1F7812FDF91CF911F910F91D4
:1006E000FF90EF9008951F93CF93DF93FC0110814B
:1006F000C181D281912F909560FF12C0F8948A81B8
:1007000089238A838981812B89838AE090E00E94F2
:100710004F058A81812B8A83789487E390E011C00A
:10072000F8948A8189238A838981812B898381E452
:1007300090E00E944F058A81812B8A83789485E01E
:1007400090E00E944F05DF91CF911F910895CF92C5
:10075000DF92EF92FF920F931F93CF93DF938C0161
:10076000E42EFF24F394C0E0D0E0C62EDD2460E048
:100770008F2D90E08C219D21892B09F061E0C8012B
:100780000E947303FF0C2196C830D10581F7EE203B
:10079000A9F4F894D8011196ED91FC9112979181EA
:1007A0008C918095982391831196ED91FC911297ED
:1007B00092818C918095982392837894DF91CF9148
:1007C0001F910F91FF90EF90DF90CF900895EF92DF
:1007D000FF920F931F93CF93DF938C017B0165E50D
:1007E00040E00E94A703C0E0D0E0F701EC0FFD1F3E
:1007F000C801608140E00E94A7032196C830D1055E
:10080000A1F7DF91CF911F910F91FF90EF90089585
:10081000DF92EF92FF920F931F93CF93DF93FC0130
:100820000081C181D281F8948981D02ED0948D210C
:10083000898378941DE7E02EFF24115059F182E05E
:1008400090E00E944F05888190E08E219F21892BA6
:10085000A1F3F8948A818D218A838981802B8983F1
:10086000789484EF91E00E944F05F89489818D215E
:10087000898380E590E00E944F05888110E090E038
:10088000E822F922EF2809F411E0789484EA91E053
:100890000E944F05812FDF91CF911F910F91FF9003
:1008A000EF90DF900895FF920F931F938C01F62E27
:1008B000862F60E00E9494058F2D90E0FC01E85F98
:1008C000FD4FE491D801EC938C509E4FFC01649154
:1008D000E62FF0E0EE0FFF1FE651FE4F8591949159
:1008E00012969C938E9311971B961C921B971D96A4
:1008F0001C921D971C961C92F80187E090E01286CE
:100900003197009711F00197FACF1F910F91FF9047
:10091000089580931B010895982F8E3008F09E5003
:10092000977080911B018295880F880F807C892B9E
:1009300080937C0080917A00806480937A0080911B
:100940007A0086FDFCCF2091780040917900942FA9
:1009500080E030E0282B392BC90108951F920F92B7
:100960000FB60F9211242F933F938F939F93AF93C2
:10097000BF938091680190916901A0916A01B09143
:100980006B0130916C010196A11DB11D232F2D5FCC
:100990002D3720F02D570196A11DB11D20936C011C
:1009A0008093680190936901A0936A01B0936B01F1
:1009B0008091640190916501A0916601B0916701F9
:1009C0000196A11DB11D8093640190936501A093D0
:1009D0006601B0936701BF91AF919F918F913F9155
:1009E0002F910F900FBE0F901F9018959B01AC0197
:1009F0007FB7F8948091640190916501A0916601A0
:100A0000B091670166B5A89B05C06F3F19F00196CC
:100A1000A11DB11D7FBFBA2FA92F982F8827860F40
:100A2000911DA11DB11D62E0880F991FAA1FBB1F58
:100A30006A95D1F7BC012DC0FFB7F894809164018D
:100A400090916501A0916601B0916701E6B5A89B00
:100A500005C0EF3F19F00196A11DB11DFFBFBA2FD0
:100A6000A92F982F88278E0F911DA11DB11DE2E09F
:100A7000880F991FAA1FBB1FEA95D1F7861B970BFA
:100A8000885E9340C8F22150304040405040685149
:100A90007C4F211531054105510571F608950197E7
:100AA00039F0880F991F880F991F02970197F1F766
:100AB0000895789484B5826084BD84B5816084BDD6
:100AC00085B5826085BD85B5816085BDEEE6F0E0C7
:100AD000808181608083E1E8F0E010828081826023
:100AE0008083808181608083E0E8F0E080818160A4
:100AF0008083E1EBF0E0808184608083E0EBF0E0D4
:100B0000808181608083EAE7F0E080818460808377
:100B10008081826080838081816080838081806821
:100B200080831092C1000895CF93DF93482F50E047
:100B3000CA01885F9D4FFC0134914C505E4FFA0111
:100B40008491882369F190E0880F991FFC01EA5293
:100B5000FE4FA591B491FC01E052FE4FC591D49196
:100B6000662351F42FB7F8948C91932F9095892395
:100B70008C93888189230BC0623061F42FB7F8947D
:100B80008C91932F909589238C938881832B8883D4
:100B90002FBF06C09FB7F8948C91832B8C939FBF77
:100BA000DF91CF91089508951F920F920FB60F9283
:100BB00011242F933F934F938F939F93EF93FF9322
:100BC0008091C00082FD1DC04091C6002091AD0102
:100BD0003091AE012F5F3F4F2F7330708091AF0186
:100BE0009091B0012817390771F0E091AD01F091B3
:100BF000AE01E359FE4F40833093AE012093AD0127
:100C000002C08091C600FF91EF919F918F914F910B
:100C10003F912F910F900FBE0F901F901895E0916C
:100C20000102F0910202E05CFF4F819191912081DD
:100C30003181821B930B8F739070892B11F00E946E
:100C4000D30508951F920F920FB60F9211242F9380
:100C50003F938F939F93EF93FF932091F1013091F6
:100C6000F2018091F3019091F4012817390731F4D2
:100C70008091C1008F7D8093C10014C0E091F30189
:100C8000F091F401EF54FE4F20818091F301909197
:100C9000F40101968F7390709093F4018093F301A7
:100CA0002093C600FF91EF919F918F913F912F91DB
:100CB0000F900FBE0F901F901895AF92BF92DF92CA
:100CC000EF92FF920F931F93CF93DF93EC017A0182
:100CD0008B01DD24403081EE580780E0680780E01A
:100CE000780711F0DD24D39491E0A92EB12CEC8982
:100CF000FD89DD2069F0C50108A002C0880F991F99
:100D00000A94E2F7808360E079E08DE390E005C02B
:100D1000108260E874E88EE190E0A80197010E94DB
:100D2000F408215030404040504056954795379543
:100D3000279580E12030380720F0DD2011F0DD24F8
:100D4000D6CFE889F9893083EA89FB89208319A203
:100D5000EE89FF89408121E030E0C9010C8C02C09E
:100D6000880F991F0A94E2F7482B4083EE89FF8988
:100D70004081C9010D8C02C0880F991F0A94E2F7C7
:100D8000482B4083EE89FF894081C9010E8C02C047
:100D9000880F991F0A94E2F7482B4083EE89FF8958
:100DA00080810F8C02C0220F331F0A94E2F7209536
:100DB00028232083DF91CF911F910F91FF90EF9017
:100DC000DF90BF90AF900895DC011C96ED91FC91EF
:100DD0001D97E05CFF4F2191319180819181281B0B
:100DE000390B2F733070C9010895DC011C96ED9109
:100DF000FC911D97E05CFF4F20813181E054F04071
:100E0000DF01AE5BBF4F8D919C9111972817390779
:100E100019F42FEF3FEF07C08D919C91E80FF91F58
:100E20008081282F30E0C9010895DC011C96ED91E6
:100E3000FC911D97E05CFF4F20813181E054F04030
:100E4000DF01AE5BBF4F8D919C9111972817390739
:100E500019F42FEF3FEF10C08D919C911197E80F7F
:100E6000F91F20818D919C91119701968F7390703D
:100E700011969C938E9330E0C9010895DC01919600
:100E80008C919197882339F05496ED91FC91559768
:100E9000808186FFF9CF91961C920895CF93DF93BE
:100EA000EC01EE85FF85E05CFF4F20813181E0544D
:100EB000F0402F5F3F4F2F733070DF01AE5BBF4FAD
:100EC0008D919C91119728173907D1F3E05CFF4F62
:100ED00080819181E054F040E80FF91F6083EE8536
:100EE000FF85E05CFF4F31832083EE89FF892081FD
:100EF00081E090E00F8C02C0880F991F0A94E2F7FE
:100F0000282B208381E089A3EC89FD89808180647E
:100F1000808381E090E0DF91CF91089581E0089592
:100F20001092F8011092F70188EE93E0A0E0B0E093
:100F30008093F9019093FA01A093FB01B093FC0117
:100F400080E291E09093F6018093F5018DE691E0C7
:100F5000909302028093010281EB91E0909304024E
:100F60008093030285EC90E0909306028093050243
:100F700084EC90E0909308028093070280EC90E06C
:100F800090930A028093090281EC90E090930C0206
:100F900080930B0282EC90E090930E0280930D02FE
:100FA00086EC90E09093100280930F0284E080938F
:100FB000110283E08093120287E08093130285E0A0
:100FC0008093140281E0809315020895CF93DF93FC
:100FD0000E9459050E947501CFE0D6E00E94B90237
:100FE0002097E1F30E940F06F9CFCF92DF92EF92A4
:100FF000FF920F931F93CF93DF937C016B018A01C4
:10100000C0E0D0E00FC0D6016D916D01D701ED9128
:10101000FC910190F081E02DC7010995C80FD91FFF
:10102000015010400115110571F7CE01DF91CF91EC
:101030001F910F91FF90EF90DF90CF900895DC010A
:10104000ED91FC910190F081E02D099508954F926A
:101050005F927F928F929F92AF92BF92CF92DF92D8
:10106000EF92FF920F931F93DF93CF93CDB7DEB72D
:10107000A1970FB6F894DEBF0FBECDBF2C01742E22
:10108000CB01223008F42AE019A231E2C32ED12C80
:10109000CC0EDD1E822E9924AA24BB24672D752F29
:1010A000A50194010E94F40879018A01C801B701E1
:1010B000A50194010E94AE08472D461B0894C10863
:1010C000D1084A3010F4405D01C0495CF60140830C
:1010D000E114F1040105110521F07E2C5F2DC801FA
:1010E000DDCFC201B6010E945901A1960FB6F89456
:1010F000DEBF0FBECDBFCF91DF911F910F91FF904B
:10110000EF90DF90CF90BF90AF909F908F907F90A7
:101110005F904F900895DC012115310541F4ED9168
:10112000FC910190F081E02D642F099508950E94B3
:1011300027080895EF92FF920F931F939A017B0166
:1011400000E010E0B801A7010E948B081F910F91E9
:10115000FF90EF9008950E9459010895629FD00179
:10116000739FF001829FE00DF11D649FE00DF11D62
:10117000929FF00D839FF00D749FF00D659FF00D11
:101180009927729FB00DE11DF91F639FB00DE11DFE
:10119000F91FBD01CF0111240895AA1BBB1B51E10A
:1011A00007C0AA1FBB1FA617B70710F0A61BB70BD7
:1011B000881F991F5A95A9F780959095BC01CD017C
:1011C000089597FB092E07260AD077FD04D0E5DFA6
:1011D00006D000201AF4709561957F4F0895F6F7B8
:1011E000909581959F4F0895A1E21A2EAA1BBB1BD3
:1011F000FD010DC0AA1FBB1FEE1FFF1FA217B307E3
:10120000E407F50720F0A21BB30BE40BF50B661FF8
:10121000771F881F991F1A9469F7609570958095BC
:1012200090959B01AC01BD01CF010895EE0FFF1F0A
:0C1230000590F491E02D0994F894FFCF94
:10123C00430A0D003939392E3900560A0D00510078
:10124C003F3F002C013A014801560101000000000B
:0C125C004E07F507E4061507F5063E07EF
:00000001FF
